:020000040800F2
:1000000000000220A5220008FD200008FF200008B3
:10001000012100080321000805210008000000005C
:1000200000000000000000000000000007210008A0
:1000300009210008000000000B2100080D21000824
:10004000F5220008F5220008F5220008F522000834
:10005000F5220008F5220008F5220008F522000824
:10006000F5220008F5220008F5220008F522000814
:10007000F5220008F5220008F5220008F522000804
:10008000F5220008F5220008F5220008F5220008F4
:10009000F5220008F5220008F5220008F5220008E4
:1000A000F5220008F5220008F5220008F5220008D4
:1000B000F5220008F5220008F5220008F5220008C4
:1000C000F5220008F5220008F5220008F5220008B4
:1000D000F5220008F522000811210008F522000889
:1000E000F5220008F5220008F5220008F522000894
:1000F000F5220008F5220008F5220008F522000884
:10010000F5220008F5220008F5220008F522000873
:10011000F5220008F5220008F5220008F522000863
:10012000F5220008F5220008F5220008F522000853
:10013000F52200080000000000000000F522000881
:10014000F5220008F5220008F5220008F522000833
:10015000F5220008F5220008F5220008F522000823
:10016000F5220008F5220008F5220008F522000813
:10017000F5220008F5220008F52200080000000022
:1001800000000000F5220008000000000000000050
:10019000F52200080000000000000000F522000821
:1001A000000000000000000000000000F522000830
:1001B000F5220008F5220008F5220008F5220008C3
:0401C000F52200081C
:1001D00010B5054C237833B9044B13B10448AFF381
:1001E00000800123237010BDDC010020000000000E
:1001F000A876000808B5034B1BB103490348AFF3C9
:10020000008008BD00000000E0010020A876000882
:10021000034613F8012B002AFBD1181A0138704746
:1002200001F0FF01102A2BDB10F0070F08D010F8A7
:10023000013B013A8B422DD010F0070F42B3F6D1AB
:10024000F0B441EA012141EA014122F007047FF0C4
:1002500000070023F0E80256083C85EA010586EA1B
:10026000010685FA47F5A3FA87F586FA47F6A5FA57
:1002700087F68EB9EED1F0BC01F0FF0102F0070263
:1002800032B110F8013B013A83EA010313B1F8D10E
:100290000020704701387047002D06BF35460338EF
:1002A000073815F0010F07D1013015F4807F02BF28
:1002B000013015F4C03F0130F0BC0138704700BF79
:1002C00081F0004102E000BF83F0004330B54FEA07
:1002D00041044FEA430594EA050F08BF90EA020F74
:1002E0001FBF54EA000C55EA020C7FEA645C7FEA07
:1002F000655C00F0E2804FEA5454D4EB5555B8BF2A
:100300006D420CDD2C4480EA020281EA030382EA9A
:10031000000083EA010180EA020281EA0303362D2C
:1003200088BF30BD11F0004F4FEA01314FF4801CFF
:100330004CEA113102D0404261EB410113F0004F11
:100340004FEA03334CEA133302D0524263EB4303C8
:1003500094EA050F00F0A780A4F10104D5F1200E66
:100360000DDB02FA0EFC22FA05F2801841F10001C1
:1003700003FA0EF2801843FA05F359410EE0A5F195
:1003800020050EF1200E012A03FA0EFC28BF4CF0C6
:10039000020C43FA05F3C01851EBE37101F000457C
:1003A00007D54FF0000EDCF1000C7EEB00006EEB89
:1003B0000101B1F5801F1BD3B1F5001F0CD3490813
:1003C0005FEA30004FEA3C0C04F101044FEA44526A
:1003D00012F5800F80F09A80BCF1004F08BF5FEAF1
:1003E000500C50F1000041EB045141EA050130BDD1
:1003F0005FEA4C0C404141EB010111F4801FA4F174
:100400000104E9D191F0000F04BF01460020B1FAC8
:1004100081F308BF2033A3F10B03B3F120020CDA00
:100420000C3208DD02F1140CC2F10C0201FA0CF0DE
:1004300021FA02F10CE002F11402D8BFC2F1200C43
:1004400001FA02F120FA0CFCDCBF41EA0C019040F9
:10045000E41AA2BF01EB0451294330BD6FEA040442
:100460001F3C1CDA0C340EDC04F11404C4F120022D
:1004700020FA04F001FA02F340EA030021FA04F33F
:1004800045EA030130BDC4F10C04C4F1200220FA96
:1004900002F001FA04F340EA0300294630BD21FAD4
:1004A00004F0294630BD94F0000F83F4801306BF9A
:1004B00081F480110134013D4EE77FEA645C18BF8E
:1004C0007FEA655C29D094EA050F08BF90EA020F25
:1004D00005D054EA000C04BF1946104630BD91EA1D
:1004E000030F1EBF0021002030BD5FEA545C05D120
:1004F0004000494128BF41F0004130BD14F580045F
:100500003CBF01F5801130BD01F0004545F0FE41D2
:1005100041F470014FF0000030BD7FEA645C1ABF07
:10052000194610467FEA655C1CBF0B46024650EA3E
:10053000013406BF52EA033591EA030F41F400216A
:1005400030BD00BF90F0000F04BF0021704730B5F0
:100550004FF4806404F132044FF000054FF00001C5
:1005600050E700BF90F0000F04BF0021704730B586
:100570004FF4806404F1320410F0004548BF40425B
:100580004FF000013EE700BF42004FEAE2014FEAB0
:1005900031014FEA02701FBF12F07F4393F07F4F8B
:1005A00081F06051704792F0000F14BF93F07F4FBD
:1005B000704730B54FF4607401F0004521F0004100
:1005C00020E700BF50EA010208BF704730B54FF086
:1005D00000050AE050EA010208BF704730B511F08B
:1005E000004502D5404261EB41014FF4806404F1C3
:1005F00032045FEA915C3FF4DCAE4FF003025FEA45
:10060000DC0C18BF03325FEADC0C18BF033202EBCC
:10061000DC02C2F1200300FA03FC20FA02F001FA26
:1006200003FE40EA0E0021FA02F11444C1E600BFC5
:1006300070B54FF0FF0C4CF4E06C1CEA11541DBF78
:100640001CEA135594EA0C0F95EA0C0F00F0DEF843
:100650002C4481EA030621EA4C5123EA4C5350EA28
:10066000013518BF52EA033541F4801143F4801379
:1006700038D0A0FB02CE4FF00005E1FB02E506F00A
:100680000042E0FB03E54FF00006E1FB03569CF05F
:10069000000F18BF4EF0010EA4F1FF04B6F5007F65
:1006A00064F5407404D25FEA4E0E6D4146EB0606D7
:1006B00042EAC62141EA55514FEAC52040EA5E5060
:1006C0004FEACE2EB4F1FD0C88BFBCF5E06F1ED80A
:1006D000BEF1004F08BF5FEA500E50F1000041EB41
:1006E000045170BD06F0004646EA010140EA0200EE
:1006F00081EA0301B4EB5C04C2BFD4EB0C0541EA10
:10070000045170BD41F480114FF0000E013C00F324
:10071000AB8014F1360FDEBF002001F0004170BD48
:10072000C4F10004203C35DA0C341BDC04F1140461
:10073000C4F1200500FA05F320FA04F001FA05F2ED
:1007400040EA020001F0004221F0004110EBD370BA
:1007500021FA04F642EB06015EEA430E08BF20EAE6
:10076000D37070BDC4F10C04C4F1200500FA04F389
:1007700020FA05F001FA04F240EA020001F000411B
:1007800010EBD37041F100015EEA430E08BF20EA8E
:10079000D37070BDC4F1200500FA05F24EEA020ED6
:1007A00020FA04F301FA05F243EA020321FA04F005
:1007B00001F0004121FA04F220EA020000EBD370BC
:1007C0005EEA430E08BF20EAD37070BD94F0000FBC
:1007D0000FD101F00046400041EB010111F4801FF0
:1007E00008BF013CF7D041EA060195F0000F18BFA1
:1007F000704703F00046520043EB030313F4801FDD
:1008000008BF013DF7D043EA0603704794EA0C0F96
:100810000CEA135518BF95EA0C0F0CD050EA4106AC
:1008200018BF52EA4306D1D181EA030101F0004129
:100830004FF0000070BD50EA410606BF1046194651
:1008400052EA430619D094EA0C0F02D150EA01365D
:1008500013D195EA0C0F05D152EA03361CBF10469E
:1008600019460AD181EA030101F0004141F0FE413D
:1008700041F470014FF0000070BD41F0FE4141F4C1
:10088000780170BD70B54FF0FF0C4CF4E06C1CEAC1
:1008900011541DBF1CEA135594EA0C0F95EA0C0F76
:1008A00000F0A7F8A4EB050481EA030E52EA033531
:1008B0004FEA013100F088804FEA03334FF0805552
:1008C00045EA131343EA12634FEA022245EA11157F
:1008D00045EA10654FEA00260EF000419D4208BF30
:1008E000964244F1FD0404F5407402D25B084FEADD
:1008F0003202B61A65EB03055B084FEA32024FF489
:1009000080104FF4002CB6EB020E75EB030E22BFE5
:10091000B61A754640EA0C005B084FEA3202B6EBA5
:10092000020E75EB030E22BFB61A754640EA5C0054
:100930005B084FEA3202B6EB020E75EB030E22BFE4
:10094000B61A754640EA9C005B084FEA3202B6EBE5
:10095000020E75EB030E22BFB61A754640EADC00A4
:1009600055EA060E18D04FEA051545EA16754FEA06
:1009700006164FEAC30343EA52734FEAC2025FEA24
:100980001C1CC0D111F4801F0BD141EA00014FF0B3
:1009900000004FF0004CB6E711F4801F04BF014384
:1009A0000020B4F1FD0C88BFBCF5E06F3FF6AFAEA0
:1009B000B5EB030C04BFB6EB020C5FEA500C50F130
:1009C000000041EB045170BD0EF0004E4EEA1131B3
:1009D00014EB5C04C2BFD4EB0C0541EA045170BDBA
:1009E00041F480114FF0000E013C90E645EA060EFE
:1009F0008DE60CEA135594EA0C0F08BF95EA0C0F2C
:100A00003FF43BAF94EA0C0F0AD150EA01347FF473
:100A100034AF95EA0C0F7FF425AF104619462CE74A
:100A200095EA0C0F06D152EA03353FF4FDAE1046AD
:100A3000194622E750EA410618BF52EA43067FF4FE
:100A4000C5AE50EA41047FF40DAF52EA43057FF48E
:100A5000EBAE12E74FF0FF3C06E000BF4FF0010C99
:100A600002E000BF4FF0010C4DF804CD4FEA410CFD
:100A70007FEA6C5C4FEA430C18BF7FEA6C5C1BD0CA
:100A800001B050EA410C0CBF52EA430C91EA030F4B
:100A900002BF90EA020F0020704710F1000F91EAA8
:100AA000030F58BF994208BF90422CBFD8176FEA76
:100AB000E37040F0010070474FEA410C7FEA6C5C44
:100AC00002D150EA013C07D14FEA430C7FEA6C5C4B
:100AD000D6D152EA033CD3D05DF8040B704700BF77
:100AE0008446104662468C461946634600E000BFC5
:100AF00001B5FFF7B7FF002848BF10F1000F01BD97
:100B00004DF808EDFFF7F4FF0CBF012000205DF861
:100B100008FB00BF4DF808EDFFF7EAFF34BF0120E6
:100B200000205DF808FB00BF4DF808EDFFF7E0FF7F
:100B300094BF012000205DF808FB00BF4DF808EDD0
:100B4000FFF7CEFF94BF012000205DF808FB00BF37
:100B50004DF808EDFFF7C4FF34BF012000205DF819
:100B600008FB00BF4FEA410C7FEA6C5C02D150EAFF
:100B7000013C0AD14FEA430C7FEA6C5C02D152EA95
:100B8000033C02D14FF0000070474FF00100704766
:100B90004FEA410212F5001215D211D56FF47873A5
:100BA000B3EB625212D94FEAC12343F0004343EA48
:100BB000505311F0004F23FA02F018BF4042704723
:100BC0004FF00000704750EA013005D111F00040AD
:100BD00008BF6FF0004070474FF00000704700BF43
:100BE0004A0011D212F5001211D20DD56FF47873AC
:100BF000B3EB62520ED44FEAC12343F0004343EA01
:100C0000505323FA02F070474FF00000704750EA4B
:100C1000013002D14FF0FF3070474FF000007047B5
:100C20004FEA4102B2F1E04324BFB3F5001CDCF10E
:100C3000FE5C0DD901F0004C4FEAC0024CEA507046
:100C4000B2F1004F40EB830008BF20F00100704775
:100C500011F0804F21D113F13872BCBF01F0004078
:100C6000704741F480114FEA5252C2F11802C2F1AA
:100C7000200C10FA0CF320FA02F018BF40F001002B
:100C80004FEAC1234FEAD32303FA0CFC40EA0C00DD
:100C900023FA02F34FEA4303CCE77FEA625307D11A
:100CA00050EA01331EBF4FF0FE4040F44000704751
:100CB00001F0004040F0FE4040F40000704700BFEB
:100CC00053B94AB9002908BF00281CBF4FF0FF31B3
:100CD0004FF0FF3000F07AB9ADF1080C6DE904CEA9
:100CE00000F006F8DDF804E0DDE9022304B0704707
:100CF0002DE9F0478C460D460446089E002B51D145
:100D00008A4217466DD9B2FA82FEBEF1000F0BD0AF
:100D1000CEF1200C01FA0EF520FA0CFC02FA0EF7C7
:100D20004CEA050C00FA0EF44FEA174A250CBCFBFE
:100D3000FAF81FFA87F90AFB18CC45EA0C4508FBBC
:100D400009F3AB420AD9ED1908F1FF3280F0238193
:100D5000AB4240F22081A8F102083D44ED1AA4B252
:100D6000B5FBFAF00AFB105544EA054400FB09F90B
:100D7000A14509D9E41900F1FF3380F00A81A145AA
:100D800040F2078102383C44A4EB090440EA0840E1
:100D90000021002E61D024FA0EF400233460736029
:100DA000BDE8F0878B4207D9002E54D0002186E899
:100DB00021000846BDE8F087B3FA83F1002940F02E
:100DC0008E80AB4202D3824200F2FA80841A65EB35
:100DD00003050120AC46002E3FD086E81010BDE888
:100DE000F08712B90127B7FBF2F7B7FA87FEBEF119
:100DF000000F34D1EB1B3A0C1FFA87FC0121B3FB27
:100E0000F2F8250C02FB183345EA03450CFB08F306
:100E1000AB4207D9ED1908F1FF3002D2AB4200F224
:100E2000D1808046ED1AA3B2B5FBF2F002FB10555B
:100E300043EA05440CFB00FCA44507D9E41900F182
:100E4000FF3302D2A44500F2B8801846A4EB0C048C
:100E500040EA08409DE731463046BDE8F087CEF1D4
:100E6000200405FA0EF307FA0EF720FA04F83A0CFC
:100E700025FA04F448EA0308B4FBF2F14FEA1845F6
:100E800002FB11441FFA87FC45EA044501FB0CF301
:100E9000AB4200FA0EF409D9ED1901F1FF3080F0F0
:100EA0008A80AB4240F2878002393D44EB1A1FFA38
:100EB00088F5B3FBF2F002FB103345EA034500FB73
:100EC0000CF3AB4207D9ED1900F1FF386FD2AB42FA
:100ED0006DD902383D44EB1A40EA01418FE7C1F178
:100EE000200722FA07F88B4005FA01F448EA0303C9
:100EF00020FA07FE4FEA134CFD404EEA040EB5FB04
:100F0000FCF94FEA1E440CFB19551FFA83F844EA1A
:100F1000054509FB08F4AC4202FA01F200FA01FAB5
:100F200008D9ED1809F1FF3043D2AC4241D9A9F1FB
:100F300002091D442D1B1FFA8EFEB5FBFCF00CFBB5
:100F400010554EEA054400FB08F8A04507D9E418FF
:100F500000F1FF3529D2A04527D902381C4440EAC8
:100F60000940A4EB0804A0FB02894C45C6464D4647
:100F700015D312D056B1BAEB0E0364EB050404FA94
:100F800007F7CB401F43CC40376074600021BDE8B9
:100F9000F0871846F8E69046E0E6C245EAD2B8EB9C
:100FA000020E69EB03050138E4E72846D7E740461F
:100FB00091E78146BEE7014678E702383C4445E7C1
:100FC000084608E7A8F102083D442BE7704700BF38
:100FD00038B50E4A0E4B054618784FF47A73B3FBBA
:100FE000F0F31068B0FBF3F000F096F8044658B93F
:100FF0000F2D09D8024629464FF0FF3000F04AF87D
:10100000044B20461D6038BD012038BD080000207B
:10101000000000200400002008B50B4B1A6842F4C1
:1010200000721A601A6842F480621A601A6842F408
:1010300080721A60032000F01BF80020FFF7C8FF41
:1010400001F03CF8002008BD003C0240034A044B7C
:1010500011681B780B441360704700BF0402002026
:1010600000000020014B1868704700BF04020020F8
:10107000074AD36823F4E0631B041B0C43F0BF63EF
:10108000000243F4003300F4E0600343D360704790
:1010900000ED00E0174B30B5DC68C4F30224C4F166
:1010A0000703251D042B28BF0423062D4FF001053F
:1010B00005FA03F303F1FF338CBF033C002419400E
:1010C000A14005FA04F4013C2240002842EA010252
:1010D0004FEA0212ADBF00F1604000F00F00064B76
:1010E00000F56140B5BFD2B2D2B21A5480F80023E5
:1010F00030BD00BF00ED00E014ED00E0002808DB8B
:101100004209012300F01F0003FA00F0014B43F8ED
:101110002200704700E100E00138B0F1807F0AD280
:10112000064B074A5860F02182F82310002007225E
:1011300098601A6070470120704700BF10E000E01F
:1011400000ED00E090F83530022B03D0802343659A
:10115000012070470268052380F83530136823F0BA
:1011600001031360002070472DE9F04F85B00B6834
:10117000DFF8A081654ADFF8A091019300234FF0CA
:10118000010E019C0EFA03FE0EEA0406B64540F07D
:10119000AA804C6824F01007022F16D14FEAD30A18
:1011A00000EB8A0A03F0070BDAF820504FEA8B0BAA
:1011B0004FF00F0C0CFA0BFC25EA0C0C0D6905FA2C
:1011C0000BF545EA0C05CAF820504FEA430A0325FF
:1011D000D0F800B005FA0AF5ED4304F0030C0BEA71
:1011E000050B0CFA0AFC013F4CEA0B0C012FC0F86E
:1011F00000C011D8876807EA050BCF6807FA0AFC18
:101200004CEA0B078760476827EA0E0EC4F3001705
:101210009F4047EA0E074760C7683D408F6807FA5E
:101220000AF73D43C560E5005DD54FF0000BCDF8F2
:101230000CB0D8F84470364D47F48047C8F8447075
:10124000D8F8447007F480470397039F23F00307FF
:1012500007F1804707F59C3703F0030CD7F808A087
:101260004FEA8C0C4FF00F0E0EFA0CFEA8422AEA41
:101270000E0E3FD005F58065A8423DD005F580658E
:10128000A8423BD005F58065A84239D005F58065B8
:10129000A84237D0484537D005F50065A84214BFAD
:1012A0000725062505FA0CF545EA0E05BD6015680B
:1012B000F74314F4803F0CBF3D403543156055683B
:1012C00014F4003F0CBF3D4035435560956814F45D
:1012D000801F0CBF3D4035439560D568A40254BFC4
:1012E0003D403543D5600133102B7FF448AF05B046
:1012F000BDE8F08F5D46D5E70125D3E70225D1E7AC
:101300000325CFE70425CDE70525CBE7003C0140C9
:101310000000024000380240001402400AB181611E
:1013200070470904FBE700002DE9F0410D46044633
:1013300010B90120BDE8F081444B1A6802F00F0299
:101340008A4228D321688F072DD4C80740D43F4B49
:101350001A6802F00F02954266D3226851076CD4D6
:10136000130707D53A4A2169936823F4604343EA97
:10137000C103936000F092F8354B364A9B68C3F383
:101380000313D35CD840344B18600020FFF720FED5
:101390000020BDE8F081CAB21A701B6803F00F0389
:1013A0009942C6D1CEE72A4B11F0040F1EBF9A68AE
:1013B00042F4E0529A600E0742BF9A6842F46042DB
:1013C0009A609A68A06822F0F00202439A60BCE733
:1013D00062681F4B012A1DD11B6813F4003FA8D07F
:1013E0001B4EB36823F003031343B360FFF73AFEC9
:1013F00041F288380746B368626803F00C03B3EB28
:10140000820FA4D0FFF72EFEC01B4045F3D9032066
:10141000BDE8F081911E01291B6802D813F0007FFE
:10142000DDE713F0020FDAE7EAB21A701B6803F087
:101430000F039D427FF47DAF8FE70549E0688B681D
:1014400023F4E05303438B608AE700BF003C024073
:1014500000380240E476000808000020044B054AEA
:101460009B68C3F38223D35C034A1068D84070475B
:1014700000380240F476000808000020044B054ABA
:101480009B68C3F34233D35C034A1068D84070476B
:1014900000380240F476000808000020204908B512
:1014A0008B6803F00C03082B07D00C2B20D01D4AAF
:1014B0001D48042B18BF104608BD4A684B68496890
:1014C00013F4800314BF18481648C1F3881118BFDD
:1014D000002302F03F02A1FB0001FFF7F1FB104BDC
:1014E0005B68C3F3014301335B00B0FBF3F008BD5D
:1014F0004A684B68496813F4800314BF0A480948D6
:10150000C1F3881118BF002302F03F02A1FB0001C4
:10151000FFF7D6FB024B5B68C3F30273E5E700BF3E
:10152000003802400024F40000127A0003682DE91C
:10153000F341DF07044610D423689E0767D423686D
:101540001A0700F1B28023685B0700F1D080A2691E
:10155000002A40F0398100201EE0974B9A6802F083
:101560000C02042A10D09A6802F00C02082A02D158
:101570005B685D0208D4904B9A6802F00C020C2A5A
:101580000DD15A6850020AD58B4B1B689903D3D5ED
:101590006368002BD0D1012002B0BDE8F081626801
:1015A000B2F5803F11D11A6842F480321A60FFF719
:1015B00059FD814D06462B689A03BDD4FFF752FDB5
:1015C000801B6428F7D90320E6E77B4DB2F5A02FF6
:1015D0002B6807D143F480232B602B6843F48033BE
:1015E0002B60E4E723F480332B602B6823F4802303
:1015F0002B60002ADBD1FFF735FD06462B689B03E5
:101600009AD5FFF72FFD801B6428F7D9DBE76A4BDB
:101610009A6812F00C0F10D09A6802F00C02082A97
:1016200002D15B685F0208D5634A936803F00C033C
:101630000C2B11D153685E020ED45F4B1A689507CC
:1016400002D5E268012AA6D11A68216922F0F802BF
:1016500042EAC1021A6072E7E268584BB2B1012255
:101660001A60FFF7FFFC544D06462B68980707D514
:101670002B68226923F0F80343EAC2032B605EE77C
:10168000FFF7F0FC801B0228EFD99CE71A60FFF7F8
:10169000E9FC494D06462B6899077FF550AFFFF7E7
:1016A000E1FC801B0228F6D98DE76269444B7AB1D0
:1016B00001221A60FFF7D6FC3F4D06466B6F9F076D
:1016C0003FF541AFFFF7CEFC801B0228F6D97AE741
:1016D0001A60FFF7C7FC384D06466B6F98077FF519
:1016E00032AFFFF7BFFC801B0228F6D96BE7324B05
:1016F0001A6C12F0805228D101921A6C42F080527A
:101700001A641B6C03F080530193019B01262D4D3D
:101710002B68D9051BD5A368274D012B27D12B6F2B
:1017200043F001032B67FFF79DFC234D074641F271
:1017300088382B6F9B0739D5002E3FF408AF1E4A1F
:10174000136C23F08053136401E70026DFE72B6856
:1017500043F480732B60FFF785FC07462B68DA059E
:10176000D9D4FFF77FFCC01B0228F7D92BE7052B44
:1017700004D12B6F43F004032B67D0E72A6F22F0CC
:1017800001022A672A6F22F004022A67002BCAD1BD
:10179000FFF768FC41F2883807462B6F9807CBD5D6
:1017A000FFF760FCC01B4045F7D90CE7FFF75AFC78
:1017B000C01B4045BDD906E7003802400000474243
:1017C000800E474200700040234DAB6803F00C03CD
:1017D000082B3FF4E0AE214E0023022A33602DD1C6
:1017E000FFF740FC07462B68990121D4226AE36980
:1017F0001343626A43EA8213E26A43EA0263226B9A
:1018000043EA0273A26A144C5208013A43EA0243C3
:101810006B6001233360FFF725FC054623689A01BE
:101820003FF599AEFFF71EFC401B0228F6D9CAE629
:10183000FFF718FCC01B0228D5D9C4E6FFF712FC3D
:1018400004462B689B017FF586AEFFF70BFC001B5F
:101850000228F6D9B7E600BF0038024060004742D0
:101860000368DA6822F49072DA605A6922F00102A1
:101870005A61202380F83A30704700002DE9F04784
:101880000668C2683369C16923F440531343336166
:10189000044683680069F2680343606922F41642D3
:1018A000034322F00C020B431343F3607369A269F4
:1018B00023F440731343B1F5004F73617A4B7CD12D
:1018C0009E4203D003F580639E4244D1FFF7D6FDCC
:1018D000192505FB00F360684FF064094000B3FB75
:1018E000F0F3B3FBF9F34FEA0318FFF7C7FD6368A2
:1018F00068435B00B0FBF3F7FFF7C0FD6368684324
:101900005B00B0FBF3F3B3FBF9F309FB1373DB00EC
:101910003233B3FBF9F35B0003F4F877FFF7AEFD66
:10192000626868435200B0FBF2FAFFF7A7FD6368F4
:1019300068435B00B0FBF3F3B3FBF9F309FB13A3BC
:10194000DB003233B3FBF9F303F0070343443B44BA
:10195000B360BDE8F087FFF781FD192505FB00F3B3
:1019600060684FF064094000B3FBF0F3B3FBF9F398
:101970004FEA0318FFF772FD636868435B00B0FB32
:10198000F3F7FFF76BFD636868435B00B0FBF3F3AD
:10199000B3FBF9F309FB1373DB003233B3FBF9F349
:1019A0005B0003F4F877FFF759FD62686843520063
:1019B000B0FBF2FAFFF752FDB9E79E4202D03B4B73
:1019C0009E4240D1FFF75AFD676819254FF0640920
:1019D00005FB00F3BF00B3FBF7F3B3FBF9F31F0103
:1019E000FFF74CFD636868439B00B0FBF3F8FFF71B
:1019F00045FD636868439B00B0FBF3F3B3FBF9F369
:101A000009FB13831B013233B3FBF9F303F0F00836
:101A1000FFF734FD626868439200B0FBF2FAFFF70B
:101A20002DFD636868439B00B0FBF3F3B3FBF9F350
:101A300009FB13A31B013233B3FBF9F303F00F03CC
:101A400043EA080383E7FFF709FD676819254FF0AC
:101A5000640905FB00F3BF00B3FBF7F3B3FBF9F335
:101A60001F01FFF7FBFC636868439B00B0FBF3F8C2
:101A7000FFF7F4FC636868439B00B0FBF3F3B3FB30
:101A8000F9F309FB13831B013233B3FBF9F303F0C2
:101A9000F008FFF7E3FC626868439200B0FBF2FADB
:101AA000FFF7DCFCBDE700BF00100140001401405F
:101AB000F8B504460E4617461D4621680B6836EAFF
:101AC000030301D10020F8BD6B1CF7D095B9236842
:101AD000DA6822F4D072DA605A6922F001025A619F
:101AE000202384F8393084F83A30002384F83830E1
:101AF0000320F8BDFFF7B6FAC01B8542DDD2E6E74A
:101B000010B5044640B390F8393003F0FF021BB91A
:101B100080F8382000F086FB2268242384F83930CE
:101B2000D36823F40053D3602046FFF7A7FE236851
:101B30001A6922F490421A615A6922F02A025A6103
:101B4000DA6842F40052DA6000202023E06384F86F
:101B5000393084F83A3010BD012010BD2DE9F04134
:101B60001F4690F83930202B04460D4690464FD141
:101B700000294AD0002A48D090F83830012B47D0AD
:101B8000012380F838300023C363212380F83930E3
:101B9000FFF768FAA4F824800646A4F82680E38CB0
:101BA0009BB26BB93B46324640212046FFF780FF8F
:101BB000B0B9202384F8393084F83800BDE8F081CA
:101BC000E38C013B9BB2E384A368B3F5805F3246AC
:101BD0003B464FF0800120460ED1FFF769FF10B160
:101BE0000320BDE8F0812B882268C3F3080353600B
:101BF000236943B90235D2E7FFF75AFF0028EFD136
:101C000023682A785A600135C9E70120BDE8F081D0
:101C10000220BDE8F0812DE9F0411F4690F83A30EE
:101C2000202B04460D46904652D100294DD0002A63
:101C30004BD090F83830012B4AD0012380F838304F
:101C40000023C363222380F83A30FFF70BFAA4F88D
:101C50002C800646A4F82E80E08D80B230B9202377
:101C600084F83A3084F83800BDE8F081E38D013B18
:101C70009BB2E385A368B3F5805F32463B464FF0E5
:101C80002001204612D1FFF713FF10B10320BDE859
:101C9000F081236822695B6822B9C3F3080325F841
:101CA000023BD9E7DBB225F8013BD5E7FFF700FFA0
:101CB0000028EBD1236821695B686A1C11B92B707D
:101CC0001546C9E703F07F03F9E70120BDE8F0817D
:101CD0000220BDE8F0817047704790F83A30222B1F
:101CE00010B536D1836801690268B3F5805F836AF5
:101CF00023D15268E9B9C2F3080223F8022B8362A8
:101D0000C48D013CA4B2C4858CB90368DA6822F0A2
:101D10002002DA60DA6822F48072DA605A6922F00E
:101D200001025A61202380F83A30FFF7D5FF0020E6
:101D300010BDD2B223F8012BE1E721B9591C52683A
:101D400081621A70DCE75268591C816202F07F02DE
:101D5000F7E7022010BD704703681A68D96870B5AC
:101D6000160704465D6907D196065AD58D0658D5E3
:101D7000BDE87040FFF7B1BF15F0010502D111F4C5
:101D8000907F4ED0D30705D5CE0542BFE36B43F01D
:101D90000103E363500704D51DB1E36B43F0020375
:101DA000E363930704D51DB1E36B43F00403E363DE
:101DB000160704D51DB1E36B43F00803E363E36B3F
:101DC000002B66D0950604D5880602D52046FFF77D
:101DD00084FF23685D69E26B1107204602D415F089
:101DE00040051AD0FFF73CFD23685A69520610D50A
:101DF0005A69606B22F040025A6150B1254B03656D
:101E0000FFF7A0F9002844D0606BBDE87040036D77
:101E100018472046FFF79FFF70BDFFF79CFFE56363
:101E200070BD160627D50D0625D594F83920212A30
:101E30002FD1A268B2F5805F226A17D11188C1F351
:101E400008015960216979B902322262E28C013AB3
:101E500092B2E284EAB9DA6822F08002DA60DA68E3
:101E600042F04002DA6070BD0132EEE7511C21629F
:101E700012785A60EAE750060BD54A0609D5DA68A7
:101E800022F04002DA60202384F839302046FFF740
:101E900022FF70BD991E000808B5806B0023C38522
:101EA000C384FFF758FF08BD30B514228BB00DEB8B
:101EB0000200002100F04AFA0024224B01941A6B20
:101EC000214D42F004021A631A6B02F004020192DF
:101ED000019A02941A6B42F080021A631A6B02F0A4
:101EE00080020292029A03941A6B42F001021A6372
:101EF0001A6B02F001020392039A04941A6B42F0E7
:101F000002021A631B6B03F0020322460493284665
:101F10002021049BFFF702FA4FF40053059305A913
:101F20000A4B0B4806930794FFF71EF920230593ED
:101F300005A901232846069307940894FFF714F98E
:101F40000BB030BD003802400000024000002110FC
:101F50000008024030B595B03422002107A800F0F7
:101F6000F5F90021142202A800F0F0F900251C4B1D
:101F700000951A6C42F080521A641B6C194A03F0E7
:101F800080530093009B0195136823F4404343F46E
:101F90008043136013680E9503F440430193019B43
:101FA00001230A9310230B930F934FF4A873022479
:101FB000109307A80423119307940D94129413947B
:101FC000FFF7B4FA0F23029321464FF4805302A87F
:101FD0000394049505930695FFF7A6F915B030BD57
:101FE00000380240007000407FB5174C174E236840
:101FF000174D9868002101F031F82368154C586896
:10200000002101F02BF8FFF707F8FFF7A3FFFFF718
:102010004BFF00F0EBF8012220210F48FFF77EF97B
:102020000023019302A9304601F000F801AA2946D5
:1020300002A801F0F3F80198FEF7A6FA02460B4653
:10204000204600F0DBFFEDE70C000020CC76000816
:10205000CF760008D27600080000024070470000EA
:1020600007B502A94FF6FF7341F8040D012203489A
:10207000FFF774FD019803B05DF804FB080200202F
:1020800007B502A9002301F8013D01224FF6FF73B5
:102090000948FFF7C0FD9DF807000D2804D1FFF7A0
:1020A000DFFF0A238DF807309DF80700FFF7D8FF00
:1020B00003B05DF804FB00BF0802002007B50E4B1B
:1020C000002100915A6C42F480425A645A6C02F426
:1020D00080420092009A01911A6C42F080521A6478
:1020E0001B6C03F0805301930720019BFEF7C0FF98
:1020F00003B05DF804FB00BF003802407047FEE704
:10210000FEE7FEE7FEE7704770477047FEF79EBFA9
:102110000148FFF721BE00BF0802002070B50E463F
:1021200015460C46A31B9D4201DC284670BDFFF7F7
:10213000A7FF04F8010BF5E770B50E4615460C46EF
:10214000A31B9D4201DC284670BD14F8010BFFF76C
:1021500087FFF5E708B50A4B1968024609B909492E
:1021600019601868694602448A4206D900F0C4F82A
:102170000C2303604FF0FF3008BD1A6008BD00BF9C
:10218000F80100204C0200204FF0FF3070474FF460
:1021900000534B60002070470120704700207047BB
:1021A0000F49D1F8883043F47003C1F888300D4BE3
:1021B0001A68002042F001021A6098601A6822F042
:1021C000847222F480321A60074A5A601A6822F434
:1021D00080221A60D8604FF000638B60704700BFA8
:1021E00000ED00E0003802401030002408B50B4834
:1021F0000B4B4FF4E13E80E808400C220023836043
:10220000C360036142618361C361FFF779FC18B168
:10221000BDE80840FFF722BF08BD00BF080200204C
:102220000044004010B5044688B01422002103A8E1
:1022300000F08CF82268194B9A422CD103F5FA333E
:10224000002401941A6C164842F400321A641A6C85
:1022500002F400320192019A02941A6B42F00102D8
:102260001A631B6B03F001030293029B0C2303937D
:1022700002230493012305930323069303A9072351
:102280000793FEF771FF262022462146FEF702FF44
:102290002620FEF733FF08B010BD00BF0044004009
:1022A00000000240DFF834D0002103E00C4B5B5803
:1022B000435004310B480C4B42189A42F6D30B4A58
:1022C00002E0002342F8043B094B9A42F9D3FFF79E
:1022D00067FF00F017F8FFF787FE70470000022045
:1022E000447A000800000020DC010020DC0100200E
:1022F0004C020020FEE70000014B1868704700BF49
:102300000C00002070B50D4E0D4CA41BA410002530
:10231000A54209D10B4E0C4C05F0C6F9A41BA41024
:102320000025A54205D170BD56F8253098470135E6
:10233000EEE756F8253098470135F2E73C7A000879
:102340003C7A00083C7A0008407A000802440346C0
:10235000934200D1704703F8011BF9E72DE9FF47CD
:1023600055EC104B0D9FDDF830A0002D0E46914628
:102370001946B8BF22462B4627F02007BBBF05F100
:1023800000431D4600232D23B8BF1446462F0B7073
:1023900004D0452F00D10136022100E0032103AB18
:1023A000019302AB00933246534645EC104B01F0CB
:1023B000FFFE472F804602D119F0010F26D0462F8D
:1023C00008EB060911D198F80030302B0AD1002211
:1023D000002320462946FEF793FB18B9C6F10106F3
:1023E000CAF80060DAF80030994400220023204641
:1023F0002946FEF785FB38B93022039B994505D95C
:10240000591C03911A70F8E7CDF80C90039B0E9AB3
:10241000A3EB08034046136004B0BDE8F087F7B5AE
:1024200003460029B8BF494203F8022BB4BF2D224E
:102430002B220929427020DD0DF1070217460A26DA
:1024400091FBF6F506FB15113031092D02F8011C40
:1024500002F1FF34294609DC3031023A04F8011C4C
:10246000BA421C4604D3201A03B0F0BD2246E7E767
:1024700012F8011B03F8011BF2E730221C4611443D
:1024800004F8022B5970EEE72DE9F04F8DB00C46A1
:10249000DDF8588016461F46054603F031F90368FB
:1024A00004931846FDF7B4FE00230A93D8F80030D1
:1024B0000590073323F0070303F1080294F818A0EE
:1024C000D4F800B0C8F80020D3E90023C4E91223EF
:1024D000D4E9128929F000430793CDF818804FF012
:1024E000FF32A54BDDE90601FEF73CFB002840F07A
:1024F000FB814FF0FF32A04BDDE90601FEF714FB34
:10250000002840F0F1810022002340464946FEF7B2
:1025100001FB10B12D2384F84330984B984ABAF14F
:10252000470F8CBF9046984603232BF0040223618B
:1025300022604FF00009009733460BAA2146284637
:1025400000F0E2F9013040F093804FF0FF300DB021
:10255000BDE8F08F61684B1C4BF480623FD10623CD
:102560006360002303930AAB029309AB009349EC29
:10257000108B0DF123032260CDF804A0616828467A
:10258000FFF7ECFE0AF0DF03472B804609D1099BD9
:10259000D81C02DB6268934257DDAAF1020A5FFA97
:1025A0008AFABAF1650F099934D80139524604F113
:1025B00050000991FFF733FF0A9A8318012A8146D8
:1025C000236102DC2268D10701D5013323619DF824
:1025D0002330002BAFD02D2384F84330ABE7BAF182
:1025E000670F02D0BAF1470FBBD189B10023039323
:1025F0000AAB029309AB009349EC108B2260CDF833
:1026000004A00DF123032846FFF7A8FE8046BEE78D
:102610000123A5E7BAF1660F19D1002963680CDD23
:10262000216113B92268D20702D501330B4423611B
:10263000099BA3654FF00009C9E713B92268D007C9
:1026400001D50233F3E70123F1E74FF0670A099B55
:102650000A9A934205DB22682361D107E8D501334A
:10266000E5E7002BD4BFC3F1020301231344DEE7E7
:1026700023685A0507D42369424631462846B8479D
:1026800001302BD161E7BAF1650F40F2E280002200
:102690000023D4E91201FEF733FA00283CD00123CD
:1026A000384A31462846B84701303FF44EAF0A9BBE
:1026B000099A9A4202DB2368D8070FD5059B049A32
:1026C00031462846B84701303FF43FAF4FF000088D
:1026D00004F11A090A9B013B984512DB23689B070A
:1026E00009D54FF0000804F11909E3680B9A9B1A09
:1026F0009845C0F2EE80E0680B9B9842B8BF184640
:1027000025E701234A4631462846B84701303FF4C1
:102710001CAF08F10108DDE7099B002B34DC012325
:10272000184A31462846B84701303FF40EAF099B9E
:1027300023B90A9B13B92368D907CFD5059B049AFF
:1027400031462846B84701303FF4FFAE4FF000094C
:1027500004F11A0A099B5B42994501DB0A9B8BE74E
:102760000123524631462846B84701303FF4EDAECA
:1027700009F10109EEE700BFFFFFEF7F00770008D6
:10278000047700082B7900080A9AA36D9A42A8BF23
:102790001A46002A914638DC04F11A034FF0000B68
:1027A00029EAE9790693D4F858A0AAEB09039B45D6
:1027B00033DB0A9B099A9A423ADB2368DA0737D45B
:1027C0000A9B0999A3EB0A02A3EB01099145A8BF53
:1027D0009146B9F1000F33DC4FF0000829EAE9799E
:1027E00004F11A0A099A0A9B9B1AA3EB090398455C
:1027F000BFF674AF0123524631462846B847013030
:102800003FF4A3AE08F10108ECE713463146424617
:102810002846B8470130BFD197E60123069A3146D2
:102820002846B84701303FF490AE0BF1010BBAE7F0
:10283000059B049A31462846B8470130C0D184E64A
:102840004B4608EB0A0231462846B8470130C3D14F
:102850007BE60A9A012A01DCDB0737D501234246D1
:1028600031462846B84701303FF46FAE059B049AC5
:1028700031462846B84701303FF467AE00220023B6
:10288000D4E91201FEF73CF958B14FF0000804F109
:102890001A0A0A9B013B98450DDB4B4604F1500296
:1028A000EBE60A9B08F10102013B31462846B84796
:1028B0000130F2D149E60123524631462846B84755
:1028C00001303FF442AE08F10108E2E7012342463D
:1028D000EBE701234A4631462846B84701303FF42A
:1028E00034AE08F1010800E742464B4640464946EF
:1028F000FEF738F900283FF42DAE014B014A0EE6F1
:10290000087700080C7700082DE9F04791461F462C
:102910008A680B69DDF820809342B8BF1346C9F876
:10292000003091F8432006460C4612B10133C9F835
:1029300000302368990642BFD9F800300233C9F845
:102940000030256815F0060507D104F1190AE3687F
:10295000D9F800209B1A9D4229DB94F84330226865
:10296000003318BF012392062ED404F143023946E6
:102970003046C047013021D02368E568D9F80020EF
:1029800003F00603042B08BFAD1AA36822690CBF2D
:1029900025EAE57500259342C4BF9B1AED184FF058
:1029A00000091A344D451BD10020BDE8F0870123F2
:1029B000524639463046C047013003D14FF0FF3010
:1029C000BDE8F0870135C2E7E1185A1C302081F8D4
:1029D0004300224494F8451082F843100233C4E7C0
:1029E0000123224639463046C0470130E6D009F17E
:1029F0000109D7E72DE9F04317460A7E85B06E2A14
:102A0000984606460C460C9B01F1430E00F0BC8034
:102A10001AD8632A2ED00AD8002A00F0C880582A73
:102A200000F08A8004F1420584F842202AE0642AFA
:102A300001D0692AF6D121681A6811F0800F23D0DD
:102A4000111D1960136827E0732A00F0B48008D8BC
:102A50006F2A2AD0702AE5D10A6842F020020A6063
:102A600003E0752A21D0782ADCD1782284F8452029
:102A70006E4964E01A6801F14205111D196013687E
:102A800084F842300123A3E011F0400F02F1040169
:102A90001960D7D0B2F90030002B03DA2D225B4247
:102AA00084F8432062490A2217E02068196810F070
:102AB000800F03D0081D18600B6806E010F0400F6F
:102AC00001F104001860F7D00B8859496F2A14BF30
:102AD0000A220822002084F843006568A560002DC2
:102AE000C0F29C80206820F004002060002B3FD1C1
:102AF000002D40F095807546082A0BD12368DA072F
:102B000008D5236962689A42DEBF302305F8013C8C
:102B100005F1FF35AEEB05032361CDF800803B46A0
:102B200003AA21463046FFF7EFFE013055D14FF0A2
:102B3000FF3005B0BDE8F08381F845203C492268AC
:102B4000186812F0800F00F104051D6001D00368C1
:102B500002E05506FBD50388D00744BF42F02002AF
:102B600022601BB9226822F0200222601022B1E705
:102B70007546B3FBF2F002FB1033CB5C05F8013D68
:102B800003460028F5D1B7E708681A68496910F0CC
:102B9000800F04D0101D18601368196007E010F052
:102BA000400F02F1040018601368F6D0198000236A
:102BB00023617546B1E71A68111D196015686268CE
:102BC00000212846FDF72CFB08B1401B60606368BC
:102BD0002361002384F843309FE723692A4639465E
:102BE0003046C0470130A2D023689B0707D5002597
:102BF00004F11909E368039A9B1A9D4205DBE0681A
:102C0000039B9842B8BF184693E701234A463946CA
:102C10003046C04701308AD00135EBE7002BA7D101
:102C20000B7884F8423004F1420565E7217700080B
:102C3000107700082DE9F04F9A468B6816465A1E09
:102C4000B2F5AE7F87B083BF6FF4AE729B1801936D
:102C5000002386BF40F25D138B6001930B688846AA
:102C600043F4F06348F81C3B4FF0000B07460C465A
:102C700045465A46CDF810B0CDF80CB0D946CDF83F
:102C800008B0A16881B133681B78492B71D04DD849
:102C9000392B40D8312B80F088802D2B00F090808C
:102CA00015D82B2B00F08C80B9F1000F03D02368CE
:102CB00023F480732360013A012A00F2EA8045453B
:102CC00000F2DC800126304607B0BDE8F08F2E2BE5
:102CD00000F09F80302BE7D1206810F4807F64D013
:102CE000019B20F08000206009F101091BB1013B2C
:102CF00001310193A160A368013BA3602369013303
:102D000023617368013B002B736040F3AC80336830
:102D100001333360B5E7452B00F08580462B6AD040
:102D2000412BC1D1012ABFD1022246E0652B7AD0C6
:102D300018D8542B66D011D84E2BB5D1002A46D1C5
:102D4000B9F1000F45D1216801F4E060B0F5E06F02
:102D50003FD121F4F061216001222EE0592B1ED0D9
:102D6000612BDEE76E2BE9D015D8662B43D0692B9B
:102D70009AD1BBF1000F38D1B9F1000F97D121687A
:102D800001F4E060B0F5E06F95D121F4F0612160CD
:102D90004FF0010B11E0742B34D0792B84D1BBF1AF
:102DA000070F81D14FF0080B07E012EB0B0F7FF4F8
:102DB0007BAF216821F4C07121602B7001359AE747
:102DC000216808067FF570AF21F08001F4E7022A40
:102DD00047D0BBF1010F03D0BBF1040F7FF464AF08
:102DE0000BF1010B5FFA8BFBE7E7BBF1030FF7D0A9
:102DF000BBF1050FF2E7BBF1020F7FF455AF4FF0C7
:102E0000030BDAE7BBF1060F7FF44EAF4FF0070B71
:102E1000D3E7216888057FF547AF21F42071216051
:102E2000CDF80890C9E7216801F4A060B0F5806F83
:102E300006D048057FF538AFB9F1000F3FF43BAF3E
:102E400088055CBF0298049521F4F06158BFA9EB96
:102E5000000041F4C07158BF039021604FF0000999
:102E6000ABE70322A9E7D4F8803105923146384612
:102E70009847059A00283FF404AF15E7D4F87C3151
:102E800015F8011D3246384698472369013B2361F6
:102E900015E70BF1FF33062B0AD8BBF1020F2FD930
:102EA000ABF1030B5FFA8BFBA5EB0B0B5D4512D16E
:102EB0002368DA0545D55B0525D545457FF602AF84
:102EC000D4F87C3115F8011D3246384698472369FD
:102ED000013B2361F1E7D4F87C3115F8011D32463E
:102EE000384698472369013B2361DFE7D4F87C31FA
:102EF00015F8011D3246384698472369013B236186
:102F00004545F3D8DEE615F8011C2369652903F170
:102F1000FF3305F1FF3B23610DD045290BD0D4F8D9
:102F20007C31324638469847236915F8021C013B2C
:102F3000A5F1020B2361D4F87C313246384698471C
:102F40005D46266816F0100654D12E70236803F4EF
:102F5000C063B3F5806F1CD1029BA9EB03035A42F7
:102F600023BB00224146384600F0D2FF2568DAF83C
:102F7000003015F0020F03F1040259EC108BCAF86F
:102F800000201ED01B68C3E90089E3680133E360B9
:102F900099E6039B002BE4D004990A2332460131C1
:102FA000384601F045F8039B049DC21A04F26F13E2
:102FB0009D4228BF04F5B7750F49284600F00AF96D
:102FC000CFE715F00405DDD11F6810EE102A4B463F
:102FD00010EE100A4946FDF7C5FD28B1284600F05D
:102FE000F3F887ED000AD0E740464946FDF718FEA2
:102FF0003860CAE7002666E6327700080FB40A4B4D
:1030000013B51C6824B1A36913B9204601F0A2FFCF
:1030100005AB049AA1680193204603F0E9FB02B0D6
:10302000BDE8104004B070470C0000200FB40A4BFC
:1030300013B51C6824B1A36913B9204601F08AFFB7
:1030400005AB049A61680193204603F03BFE02B091
:10305000BDE8104004B070470C00002000294FF478
:1030600080630CBF0222002200F000B82DE9F74374
:103070001D46514B1E6804460F46904626B1B36963
:1030800013B9304601F066FF4C4B9C4252D1746834
:10309000B8F1020F06D0B8F1010F00F28980002DBF
:1030A000C0F286802146304601F0D8FE616B41B106
:1030B00004F14403994202D0304602F0C5FF0023D8
:1030C00063630023A3616360A3891B0603D52169A1
:1030D000304602F0B9FFA38923F44A6323F00303C7
:1030E000B8F1020FA3815DD001AB6A46214630469C
:1030F00002F026FBA3891843A0812DBB009D284622
:1031000002F082FB074600284ED1DDF80090A94569
:103110003CD14FF0FF30A38943F00203A381002389
:10312000A36004F14703236023610123636103B0BB
:10313000BDE8F083224B9C4201D1B468A8E7214B43
:103140009C4208BFF468A3E7002FD8D0B36913B935
:10315000304601F0FFFEB8F1010F08BFA3892760D8
:1031600004BF43F00103A381A389276113F0080082
:1031700065611BD013F0010018BF6D424FF00003D2
:103180001DBFA360A5611846A560D0E7484602F0C0
:103190003BFB07460028BCD0A38943F08003A381F2
:1031A0004D46D3E70020B6E7A946F5E7A060BEE7A5
:1031B0004FF0FF30BBE700BF0C000020B8770008DD
:1031C000D8770008987700089FED010A704700BF84
:1031D0000000C07F0EB400B59CB04FF402711DAB6F
:1031E000ADF81410029006906FF000410A48049167
:1031F00007914FF6FF7153F8042BADF816100068D5
:10320000019302A903F028F8029B00221A701CB057
:103210005DF804EB03B070470C0000200EB430B52D
:103220009CB01FAC4FF4017254F8045BADF814204D
:1032300002900690FCF7ECFF0B4B039007900B936A
:103240000A48019400230F9314934FF6FF73ADF8CF
:1032500016302A46234602A9006803F04BF91CB039
:10326000BDE8304003B07047933200080C000020E6
:1032700010B50C46B1F90E1003F0A4FE0028ABBF48
:10328000636DA3891B1823F48053ACBF6365A381CE
:1032900010BD002070472DE9F0411F468B89DB05EA
:1032A00005460C46164605D502230022B1F90E103C
:1032B00002F034FAA389B4F90E1023F48053A381E9
:1032C00032463B462846BDE8F04100F0C3BE10B58B
:1032D0000C46B1F90E1002F021FA431CA38915BF68
:1032E000606523F4805343F48053A38118BFA38106
:1032F00010BDB1F90E1000F0BFBE70B504460D460A
:1033000045EC104B164602F065FD51EC100B7EB1FA
:10331000C5F30A53C3F16B03002B09DD1B0503F151
:103320007F55002405F5401522462B46FDF780F910
:1033300070BD0000000000002DE9F04F9FB09846DE
:103340000490002340460C4615921A9302F0D6F9D9
:1033500007460068FCF75CFF4FF0000A05464FF097
:10336000000B1994199B1A780D2A33D8092A37D2E1
:10337000002A3FD000230993199E3378302B40F068
:1033800003817378582B01D0782B6BD1099B019363
:103390001AAB0093CDF808801BABAD4A049819A96D
:1033A00001F0C8FE10F00704054605D0062C2BD10D
:1033B0000136002319960993159B002B40F0908548
:1033C000099BE3B152460BF1004343EC102B1FB0B5
:1033D000BDE8F08F2B2A06D02D2A13D0202AC9D180
:1033E00001331993BEE7002209925A1C19925B78A7
:1033F000002BC1D1159B1994002B40F06F855246CC
:103400005B46E2E70122EFE71A9A3AB135211CA8A0
:1034100002F0D1FD1A99049802F04FFA013C042CF5
:1034200008D8DFE804F00C03171A0C00DDF870A0D0
:10343000DDF874B02907BFD54BF0004BBCE71D9BEE
:103440001B9ADDF870A023F4801302F2334243EAA2
:10345000025BEFE7DFF804B2ECE76FF0004B4FF0F0
:10346000FF3AE7E7199B5A1C19925B78302BF9D089
:10347000002BA1D001234FF000090893199B0A9358
:10348000CDF81C90CDF818900A2219980678A6F16C
:103490003003D9B2092979D92A46396803F078FE70
:1034A000002800F082800020069D33460246014637
:1034B000652B02D0452B40F0E88025B910B9089B58
:1034C000002B97D00025199C631C199363782B2B34
:1034D00000F0C8802D2B00F0CB8000260596A3F1CC
:1034E0003006092E00F2D080302B00F0C380A3F10B
:1034F0003106082E00F2C980A3F1300E199B4FF05F
:103500000A0C1F46199B5E1C19965B78A3F13008C4
:10351000B8F1090F40F2B380F61B082E44F61F687D
:1035200002DCF045A8BFF046059E0EB1C8F10008C8
:10353000002D40F0D08000287FF43EAF089A002A8A
:103540007FF43AAF00297FF455AF4E2B00F0A680F0
:1035500000F39E80492B7FF44DAF3E4919A802F03D
:1035600019F800283FF446AF199B3B49013B19A8C5
:10357000199302F00FF810B9199B01331993DFF872
:10358000DCB04FF0000A17E7002374E7069908291A
:10359000DDBF079902FB0133079302FB0939069B44
:1035A00001300133069319906FE7199B5A1919924C
:1035B000069A5B5D002A48D11046302B2AD0A3F131
:1035C0003102082A00F29184199A0A9202460020D8
:1035D0000546303B00F1010111D00A4400EB050C17
:1035E00029460A2661451BD12844082800F1010517
:1035F00025DC07980A2101FB003307930021199B62
:10360000581C19905B780846A3F130010929E0D9CC
:1036100001214DE7199B5A1C199201305B78CCE7C8
:10362000013101F1FF3EBEF1080F03DC079F774334
:103630000797D7E71029D8BF06FB09F9D2E7102D65
:10364000DCBF0A2101FB0939D8E70246069DDBE70A
:1036500038770008057700088B7700080000F07FB6
:1036600001212BE700230593A31C1993A37836E7C8
:103670000123F8E7199B5E1C19965B7834E70CFB75
:103680000E3EAEF1300E3DE719944FF000084FE7C3
:10369000692B3FF462AF6E2B7FF4ACAE884919A85A
:1036A00001F078FF00283FF4A5AE199B1B78282B6A
:1036B0000ED11CAA834919A801F07FFF052807D164
:1036C0001D9BDDF870A043F0FF4B4BF4E00B73E65D
:1036D000DFF800B255E7069B0798002B08BF2B4682
:1036E000102D2C46A8EB0208A8BF10240693FCF767
:1036F00029FF092C82468B4613DD734B03EBC40371
:1037000053E91223FCF794FF064648460F46FCF7A0
:1037100019FF02460B4630463946FCF7D7FD824674
:103720008B460F2D36DCB8F1000F3FF445AE24DD9B
:10373000B8F1160F0BDC644D05EBC808D8E90001A1
:1037400052465B46FCF774FF82468B4634E6C5F171
:10375000250398451EDC5C4CC5F10F0504EBC50143
:10376000A8EB050552465B46D1E9000104EBC50410
:10377000FCF75EFFD4E90023E4E718F1160F09DB3C
:10378000514DA5EBC808D8E9002350465946FDF72E
:1037900079F8D9E72C1B4444002C70DD14F00F039A
:1037A0000AD0494901EBC30152465B46D1E9000109
:1037B000FCF73EFF82468B4634F00F0450D0B4F540
:1037C0009A7F23DD0024254607940694049ADFF8A7
:1037D00008B1222313604FF0000A079B002B3FF42F
:1037E000EBAD1A99049802F068F80699049802F073
:1037F00064F82946049802F060F80799049802F0EA
:103800005CF82146049802F058F8D5E52F4E0023C5
:1038100024115046594699463746012C23DC0BB1FA
:1038200082468B46ABF1547B07EBC90752465B4699
:10383000D7E90001FCF7FCFE21F000438B460A4665
:103840001B0D23491B058B428246BBD8A1F5801175
:103850008B4286BFDFF884B04FF0FF3A02F1547B11
:10386000002305936DE0E20704D5D6E90023FCF7B9
:10387000DFFE012309F1010964100836CDE7EFD01E
:10388000644214F00F020AD00F4B03EBC203504600
:103890005946D3E90023FCF7F5FF82468B462411F5
:1038A000DED01F2C1CDD0024254607940694049AC4
:1038B00022234FF0000A4FF0000B13608DE700BF8A
:1038C0000D7700084C770008307800080878000869
:1038D0000000A07C0000F8FF0000F07FFFFFEF7FFA
:1038E00014F0100318BF6A23A04E059350465946A2
:1038F0000023002C00F306810BB182468B46059B0A
:10390000BBB1CBF30A53C3F16B03002B594610DD57
:103910001F2B40F30181342BDEBF203B4FF0FF32E1
:1039200002FA03F34FF0000ACCBF4FF05C7B03EACE
:10393000010B0022002350465946FDF7E1F800280C
:10394000B1D1079B0093069A0A9904982B4602F07E
:1039500006F8079000283FF435AFB8F1000FC8F122
:103960000003A8BF00230E93002428EAE8730F93F6
:103970002546079B0498596801F06BFF06900028C4
:103980003FF424AF079B1A69023203F10C01920045
:103990000C3001F053FF1CAA1BA94BEC10AB049890
:1039A000CDE90AAB02F08CFA1A9000283FF40EAF72
:1039B0000121049802F05FF8054600283FF406AFA5
:1039C0001B9E1C9A002EABBF0E9B0F9B0F9FDDF81A
:1039D0003880ACBF03EB06089F1B059BF61A164404
:1039E000634B013E9E42C2F1360280F2A8809B1BCF
:1039F0001F2BA2EB03024FF0010900F3948009FA98
:103A000003F31493002608EB0209059BC8451744ED
:103A10001F444346A8BF4B46BB42A8BF3B46002BB2
:103A2000C2BFA9EB0309FF1AA8EB03080E9BBBB1A9
:103A300029461A46049802F0B5F8054600283FF4D6
:103A4000C5AE01461A9A049802F01EF808900028A4
:103A50003FF4BCAE1A99049801F02FFF089B1A930B
:103A6000B9F1000F6FDC0F9B002B75D1002F08DD23
:103A70003A460699049802F0E3F8069000283FF4CD
:103A8000A5AEB8F1000F08DD29464246049802F0C1
:103A9000D7F8054600283FF499AE069A1A9904987B
:103AA00002F039F9044600283FF490AEC368089349
:103AB0000023C360294602F014F900285ADA089B53
:103AC000E3B9BAF1000F19D1CBF31303B3B92BF05B
:103AD00000431B0D1B05B3F1D66F0FD9636913B9F2
:103AE0002369012B0ADD21460122049802F0A8F87F
:103AF0002946044602F0F5F800286CDC059B002BF3
:103B000076D16EE6E20704D5D6E90023FCF790FDF6
:103B1000012364100836ECE64FF0FF3202FA03F39B
:103B200003EA0A0A05E7C6F17F4606F57F0606F5B1
:103B30007B46E23609FA06F6CDF8509063E701239A
:103B4000002614935FE74A461A99049802F078F821
:103B50001A90002887D139E60F9A0699049802F046
:103B600021F80690002881D130E600BF6077000878
:103B700002FCFFFF40F08680089ACBF3130332B3B8
:103B8000AD4A9342594652D1059B5046D3B1AB4AF8
:103B90000A40B2F1D46F4FF0FF3716D8120DC2F1C0
:103BA0006B0307FA03F3834241D1A54A914202D144
:103BB00001333FF40BAEA14B0B4003F5801B4FF0DC
:103BC000000A9BE74FF0FF33EDE73B46EBE773BBA3
:103BD000BAF1000F2BD12BF00043059A1B0D1B05EA
:103BE000E2B1B3F1D66F19DCB3F15C7F7FF75FAE62
:103BF000944B0D9300230C9350465946DDE90C235A
:103C0000FCF716FD82468B4600297FF4EAAD0028BA
:103C10007FF4E7AD049A22231360E2E5A3F5801355
:103C20006FEA135B6FEA0B5B4FF0FF3A66E79EB1FA
:103C300016EA0B0F3FF462AF089B059A50465946AF
:103C400073B1FFF75AFB02460B46DDE90A01FCF7A8
:103C50003DFB82468B4651E7149B13EA0A0FE9E7C6
:103C6000FFF74BFB02460B46DDE90A01FCF72CFB94
:103C70000022002382468B46FCF742FF00287FF497
:103C800016AE3BE72946204602F069F957EC106B67
:103C900000224FF0804310EE100A3946FCF744FF33
:103CA000002874D0089B002B46D0DFF89C914FF081
:103CB0000008654F0026614B0BEA03031493149A26
:103CC000624B9A4240F0CA80DDE90A23ABF1547B93
:103CD0004BEC10ABCDE90C2302F07CF8404653ECE2
:103CE000102B4946FCF7A4FC52465B46FCF7EEFA63
:103CF000524A574B0A409A4282465CD90D9A03F1C8
:103D000054739A4203D10C9B01333FF45FADDFF84B
:103D100030B14FF0FF3A1A99049801F0CEFD0699A0
:103D2000049801F0CAFD2946049801F0C6FD214619
:103D3000049801F0C2FD1CE6BAF1000F18D1CBF3D4
:103D40001303E3B90022404B30463946FCF7E2FE4C
:103D5000D0B93046394600223E4BFCF769FC064696
:103D60000F4607F1004316961793DDE91689A2E77F
:103D7000BAF1010F03D1BBF1000F3FF498AD4FF042
:103D80000008DFF8D49094E70026324FE9E7314B82
:103D9000304639460022FCF74BFC089B06460F468E
:103DA00033B901F1004310901193DDE9108982E7E6
:103DB000CDE91067F9E701F1547B059B002BAAD1EF
:103DC0002BF000431B0D149A1B059A42D846A2D132
:103DD00039463046FCF7DCFEFCF7C4FB0B460246D6
:103DE00039463046FCF770FA089B06460F4633B951
:103DF000BAF1000F03D1CBF31303002B68D00AA351
:103E0000D3E9002330463946FCF784FE00287FF4CE
:103E1000E8AC07A3D3E9002330463946FCF798FE07
:103E200000283FF478AFDCE49535A094FFFFDF3F36
:103E300035E5AF350000E03FFFFF0F000000F07FE9
:103E4000FFFFEF7F000050390000F03F0000E07FEF
:103E5000FFFF9F7C0000E03F0000F0BF059B1BB30D
:103E6000149BB3F1D46F1FD825A3D3E900233046A8
:103E70003946FCF759FE90B139463046FCF7B0FEA2
:103E8000002808BF0120FCF75DFB089B06460F4693
:103E9000DBB901F1004312901393DDE91289149A02
:103EA00009F1D663A3EB02099DED0A0B01F092FF25
:103EB000404653EC102B4946FCF7BAFBDDE90A23D8
:103EC000FCF704FA82468B4677E7CDE91267E4E710
:103ED0000DA3D3E90023FCF71DFEA1E700230993FE
:103EE000159A199B1360FFF76BBA652B4FF0000210
:103EF0003FF4B6AB15460121FFF7DCBAAFF3008003
:103F00000000C0FFFFFFDF419535A094FFFFCF3FCA
:103F1000054B1B6810B41B6A044C002B08BF2346DA
:103F20005DF8044BFFF708BA0C0000207000002079
:103F30002DE9F84F8046894692461F468B465D46DE
:103F40000A9815F8014B01F0C8FB2044467816F09A
:103F500008060BD12D2C0BD12C7801260BF1020574
:103F600067B1102F14D1302C0AD011E0AB46E6E730
:103F70002B2C04BF2C780BF10205F1E7302C27D154
:103F80002B7803F0DF03582B4BD16C7810270235C8
:103F9000002E0CBF6FF000414FF000410022B1FB3A
:103FA000F7FE104607FB1E1CA4F13003092B11D8A5
:103FB0001C46A7421DDD531C07D0864516D301D1F0
:103FC000A44513DB00FB0740012215F8014BEBE78A
:103FD0000A27DDE7A4F14103192B01D8373CE8E7B4
:103FE000A4F16103192B04D8573CE2E74FF0FF32EC
:103FF000EBE7531C08D12223C8F800300846BAF179
:10400000000F07D1BDE8F88F06B14042BAF1000FAA
:104010000CD022B1013DCAF80050BDE8F88F4D46E2
:10402000F9E73024002FB3D10827B1E7BDE8F88FB6
:1040300037B5064C064D2468246A002C08BF2C4670
:104040000094FFF775FF03B030BD00BF0C000020E7
:104050007000002038B5074C05460846114600227E
:1040600022601A46FEF768F8431C02D1236803B1A8
:104070002B6038BD4802002038B5064C00230546A9
:1040800008462360FEF780F8431C02D1236803B181
:104090002B6038BD480200202DE9F74F03690C69F9
:1040A0009C42804600F38280013C01F114074FEAF4
:1040B000840E00F1140657F8245056F8240006EB3D
:1040C0000E03013507EB0E090193B0FBF5F595B32F
:1040D0004FF0000A3846B446D34650F8042B93B24A
:1040E00005FB03A34FEA134A9BB2ABEB0303120C8D
:1040F000BCF800B005FB02A213FA8BF34FEA124A98
:104100001FFA82FBDCF80020CBEB124202EB2342C9
:104110009BB243EA024381454FEA224B4CF8043BF1
:10412000DBD256F80E3033B9019B043B9E421A464F
:1041300030D3C8F81040404601F0D3FD002825DBFD
:10414000013530464FF0000E57F8042BD0F800C070
:1041500093B2AEEB0303120C13FA8CF3C2EB1C42C6
:1041600002EB23429BB243EA0243B9454FEA224E97
:1041700040F8043BE8D256F8242006EB84032AB921
:10418000043B9E421A460BD3C8F81040284603B0A1
:10419000BDE8F08F1268043B002ACAD1013CC5E794
:1041A0001268043B002AEFD1013CEAE70020EEE769
:1041B0002DE9F04F57EC106B97B0CDE90067466AD8
:1041C000079104460A920F93209D3EB9102001F0FA
:1041D0001BFB6062466086600660C660636A1968A1
:1041E00051B15A684A60012393408B60204601F028
:1041F00064FB636A00221A60019B002BBFBF01238E
:104200002B60019B23F00043B2BF019300232B607E
:10421000DDF80480A84B33EA08031BD10F9A42F261
:104220000F731360009B23B9C8F31300002800F03C
:104230007885219B53B9A14B21E0A14B0293083310
:10424000219A1360029817B0BDE8F08F9B4B029340
:104250000333F5E7DDE900670022002330463946E5
:10426000FCF74EFC814660B10F9A01231360219B3D
:10427000002B00F05385934B219A1360013B02936E
:10428000E0E714AA15A947EC106B204601F018FED0
:10429000C8F30A558246002D7ED0C7F3130343F0BE
:1042A0007F51304641F44011A5F2FF35CDF84890DA
:1042B0000022854BFCF708F879A3D3E90023FCF72B
:1042C000B7F979A3D3E90023FCF700F8064628469E
:1042D0000F46FCF747F976A3D3E90023FCF7A8F9CA
:1042E00002460B4630463946FBF7F0FF06460F46BE
:1042F000FCF74EFC00228346002330463946FCF78B
:1043000009FC58B15846FCF72DF902460B463046D9
:104310003946FCF7F5FB08B90BF1FF3BBBF1160F73
:1043200059D86A4901EBCB01DDE90023D1E900014D
:10433000FCF70EFC002850D00BF1FF3B00230E933E
:10434000149B5D1B6B1E069345BFC5F101030593CE
:10435000002300234CBF06930593BBF1000F3EDB07
:10436000069BCDF82CB05B44069300230893079B73
:10437000092B00F2AF80052BC4BF043B0793079BBA
:10438000A3F10203CCBF00260126032B00F2AE806E
:10439000DFE803F082842F77159B149D1D4405F2FE
:1043A0003243202B11DD009A05F21240C3F1400385
:1043B00022FA00F008FA03F31843FCF7C3F80123CC
:1043C000A1F1F871013D129372E7C3F12000009B47
:1043D00003FA00F0F1E70123B1E70E90B0E7059B87
:1043E000A3EB0B030593CBF10003089300230B937E
:1043F000BDE7012309930A9B002B7ADD0493039305
:10440000656A00226A60042101F114029A4275D99A
:104410006968204601F01DFA636A28601B680293F0
:10442000039B0E2B00F2E580002E00F0E2809DED54
:10443000007BBBF1000F8DED0C7B74DD234A0BF08C
:104440000F034FEA2B1602EBC303F006D3E90089F2
:1044500059D51F4B51EC170BD3E90823FCF712FA7F
:10446000CDE9000106F00F060325194F002E4CD1AF
:1044700042464B46DDE90001FCF704FACDE90001B4
:104480006AE0012309930A9B5B4404930133012BE7
:104490000393B8BF0123B3E70023ABE70023F1E7A1
:1044A00061436F63A787D23FB3C8608B288AC63F3A
:1044B000FB799F501344D33F0000F07F91770008B1
:1044C000887700082C7900080000F83F3078000851
:1044D0000878000801260023079309964FF0FF3360
:1044E00004930393002212230A9289E7012309937C
:1044F000F4E70123049303931A46F5E76A6801324F
:104500006A60490080E70225AFE7F10708D5404619
:104510004946D7E90023FCF78BF8013580468946E8
:1045200076100837A2E700F09D80CBF100069F4B84
:104530009F4F06F00F0203EBC203D3E90023DDE92E
:104540000C01FCF775F8CDE90001361100230225B6
:10455000002E7CD1002B91D10E9B002B00F084808B
:10456000DDE900890022934B40464946FCF7D2FA28
:10457000002879D0039B002B76D0049B002B34DDE0
:1045800000228D4B40464946FCF752F8CDE9000128
:10459000049E0BF1FF3701352846FBF7E3FFDDE909
:1045A0000023FCF745F80022844BFBF78FFE804682
:1045B000A1F15079002E5AD10022814BDDE9000192
:1045C000FBF782FE42464B46CDE90001FCF7C0FAFC
:1045D000002840F09B82424609F10043DDE90001DA
:1045E000FCF798FA002840F08F82DDE90C23CDE932
:1045F0000023159B002BC0F25081BBF10E0F00F37E
:104600004C816A4B03EBCB03D3E900890A9B002B57
:1046100080F2DA80039B002B00F3D68040F0738297
:104620000022674B40464946FCF702F8DDE90023CB
:10463000FCF784FA039E3746002840F04A82029B2A
:10464000029A5D1C312313700BF1010B45E2F20756
:1046500005D5D7E90023FBF7EBFF013501237610E1
:10466000083775E7022577E75F46039E94E7029ACD
:104670004E4B32441392099A711E002A48D003EB24
:10468000C103D3E9002300204E49FCF7FBF8424662
:104690004B46FBF719FE029D80468946DDE9000185
:1046A000FCF776FA0646FBF75DFF02460B46DDE9AE
:1046B0000001FBF709FE303605F8016B42464B4618
:1046C000CDE90001FCF726FA002865D1DDE90023D9
:1046D00000203849FBF7F8FD42464B46FCF71AFA32
:1046E000002840F0BA80139B9D423FF47EAF002229
:1046F000314B40464946FBF79BFF002280468946E6
:104700002D4BDDE90001FBF793FFCDE90001C5E783
:1047100003EBC10142464B46D1E90001FBF788FF9C
:10472000CDE91001029DDDE90001FCF731FA0646F2
:10473000FBF718FF303602460B46DDE90001FBF7B8
:10474000C3FD05F8016B139BAB42804689464FF0D1
:10475000000225D11B4BDDE91001FBF7B7FD024636
:104760000B4640464946FCF7F3F9002875D1DDE9D0
:10477000102300201349FBF7A7FD02460B464046D5
:104780004946FCF7C7F900283FF42FAF15F8013C64
:10479000302B05F1FF3201D0BB464DE01546F5E761
:1047A000054BFBF745FFCDE90001BCE73078000879
:1047B000087800080000F03F0000244000001C4082
:1047C000000014400000E03FDDE90067029D424622
:1047D0004B4630463946FCF755F8FCF7D9F90090BE
:1047E000FBF7C0FE42464B46FBF722FF02460B4654
:1047F00030463946FBF768FD009E039F303605F8CA
:10480000016B029EAE1BB74202460B4638D1FBF746
:104810005DFD06460F4602460B4640464946FCF7FC
:1048200079F9C8B932463B4640464946FCF768F933
:1048300010B1009BDB070FD45146204601F03DF834
:1048400000230F9A2B700BF101031360219B002BA7
:104850003FF4F8AC1D60F5E45F4615F8012C392AE9
:1048600005F1FF3306D1029A9A4207D13023137023
:10487000013713461A7801321A708DE71D46ECE7AE
:104880000022A44BFBF7D4FE0022002306460F466D
:10489000FCF736F900289AD0CEE7099A002A00F0F2
:1048A000CD80079A012A00F3AF80129A002A00F007
:1048B000A78003F23343089E059D059A1A4405928A
:1048C000069A01211A442046069201F0D4F80746C0
:1048D000002D0CDD069B002B09DDAB42059AA8BF1D
:1048E0002B46D21A0592069AED1AD31A0693089B04
:1048F000F3B1099B002B00F0A580002E10DD394696
:104900003246204601F04EF95246014607462046FF
:1049100001F0BAF851468046204600F0CEFFC2466C
:10492000089B9A1B04D05146204601F03BF9824671
:104930000121204601F09FF80B9B002B064640F317
:1049400083801A460146204601F02CF9079B012B73
:1049500006467CDD4FF00008336906EB83031869D7
:1049600001F03BF8C0F12000069B184410F01F0036
:1049700000F09680C0F12003042B40F38780059B54
:10498000C0F11C0003440593069B054403440693B1
:10499000059B002B05DD51461A46204601F050F9D3
:1049A0008246069B002B05DD31461A46204601F063
:1049B00047F906460E9B002B74D03146504601F055
:1049C00090F900286EDA002351460A22204600F0B2
:1049D0008BFF099B0BF1FF3B8246002B00F0A88167
:1049E000002339460A22204600F07EFF049B002B5C
:1049F000074600F3C880079B022B40F3C48059E0B0
:104A0000149BC3F1360356E7039B5E1E089BB3421B
:104A1000BFBF089B0896F21A0B9BB6BF9B189E1B44
:104A20000B93039BB8BF0026002BB9BF059B039ACD
:104A3000059D039BBCBF9D1A00233EE7089E059D74
:104A4000099F45E7089A6EE7079B012B19DC009B3D
:104A5000BBB9019BC3F313039BB9019B23F0004334
:104A60001B0D1B0583B1059B01330593069B013389
:104A700006934FF001080B9B002B7FF46DAF0120D4
:104A800072E74FF00008F6E79846F4E780D0059A01
:104A90001C331A440592069A1A441D44134676E7BD
:104AA0000346F4E7039B002B36DC079B022B33DD28
:104AB000039B0493049B63B931460522204600F012
:104AC00013FF01460646504601F00BF900283FF758
:104AD000B6AD0A9B029D6FEA030B00230393314698
:104AE000204600F0EAFE002F3FF4A6AE039B2BB158
:104AF000BB4203D01946204600F0DFFE394620466F
:104B000000F0DBFE98E600263746E2E7BB46374674
:104B100095E500BF00002440099B93BB039B0493D1
:104B2000029D31465046FFF7B7FA00F1300905F80B
:104B3000019B029B049AEB1A9A4200F3DC80029BD1
:104B4000012AACBF9B1801339846002303935146BA
:104B50000122204601F074F83146824601F0C1F886
:104B6000002800F38D8003D119F0010F40F08880F8
:104B7000454615F8013C302B05F1FF32AFD1154603
:104B8000F7E7039B0493002D05DD39462A462046AE
:104B900001F056F80746B8F1000F4CD0796820466E
:104BA00000F057FE3A6902320546920007F10C0107
:104BB0000C3000F043FE01222946204601F040F867
:104BC000009BDDF80880039703F001030746059377
:104BD00031465046FFF760FA0399054600F1300967
:104BE000504601F07EF83A4600903146204601F0EA
:104BF00092F8C368024603BB01460690504601F096
:104C000070F8069A034611462046069300F055FEBA
:104C1000069BA3B9079A92B9059A82B9B9F1390FDF
:104C200029D0009B002B01DD05F1310908F10105B8
:104C300088F8009053E73846C2E70123E3E7009A7B
:104C4000002A04DB25D1079A1ABB059A0ABB002B60
:104C5000ECDD51460122204600F0F2FF314682464B
:104C600001F03FF8002803DCE0D119F0010FDDD09E
:104C7000B9F1390FD8D1392388F8003008F101088B
:104C8000454615F8013C392B05F1FF323BD0013385
:104C900040E0002B08F1010505DDB9F1390FEAD03C
:104CA00009F10109C4E7029B049A05F8019CEB1A7B
:104CB0009342A8463FF44BAF514600230A222046B8
:104CC00000F012FE039B0399BB4282464FF00003A3
:104CD0004FF00A02204604D100F006FE039007467A
:104CE00076E700F001FE002303900A2239462046B1
:104CF00000F0FAFDF3E7514600230A22204600F0B7
:104D0000F3FD82460DE7029B934205D1029A0BF117
:104D1000010B31231370E2E61546B2E7094BFFF7AA
:104D2000AEBA219B002B7FF488AA074BFFF7A7BAE6
:104D3000049B002B3FF7F4AE079B022B7FF7F0AEEE
:104D4000B8E600BF2B790008887700088A892DE92A
:104D5000F041054610070C465AD44B68002B05DC81
:104D60000B6C002B02DC0020BDE8F081E66A002E0F
:104D7000F9D0002312F480522F682B6033D0606D7D
:104D8000A3895A0705D56368C01A636B0BB1236CFE
:104D9000C01A00230246E66A216A2846B047431C2F
:104DA000A38906D129681D294BD82B4ACA40D607AA
:104DB00047D500226260D9042269226004D5421CD2
:104DC00001D12B6803B96065616B2F600029CAD0DF
:104DD00004F14403994202D0284601F035F900203D
:104DE0006063BDE8F081216A01232846B047411C79
:104DF000C6D12B68002BC3D01D2B01D0162B01D19F
:104E00002F60B0E7A38943F04003A381BDE8F081A0
:104E10000F69002FA7D093070E6808BF4B690F607A
:104E200018BF0023A6EB07088B60B8F1000F9ADDCE
:104E300043463A46216AA66A2846B047002807DC5E
:104E4000A38943F04003A3814FF0FF30BDE8F08118
:104E50000744A8EB0008E8E70100402038B50B69DB
:104E600005460C46DBB118B183690BB900F072F846
:104E70000C4B9C4209D16C68B4F90C307BB12146D3
:104E80002846BDE83840FFF761BF074B9C4201D17F
:104E9000AC68F1E7054B9C4208BFEC68ECE70020EA
:104EA00038BD00BFB8770008D877000898770008A9
:104EB000014620B9044B0549186800F0D3B8044BEB
:104EC0001868FFF7CBBF00BFFC7600085D4E0008F6
:104ED0000C000020014900F0C5B800BF5D4E00087D
:104EE000002310B5044603604360836081814366FC
:104EF000C281036143618361194608225C30FDF77A
:104F000025FA054B6362054BA362054BE362054B33
:104F10002462236310BD00BF71320008973200087D
:104F2000CF320008F332000870B54A1E6825554399
:104F30000E4605F1740101F0D5F8044640B1002198
:104F400080E842000C30A06005F16802FDF7FEF930
:104F5000204670BD836910B5044633BB8364C364C7
:104F60000365124B124A1B688262984204BF0123F8
:104F7000836100F01FF86060204600F01BF8A0601D
:104F8000204600F017F80022E06004216068FFF777
:104F9000A7FF01220921A068FFF7A2FF0222122128
:104FA000E068FFF79DFF0123A36110BDFC760008B8
:104FB000D54E0008F8B51C4B1E68B369074613B9F7
:104FC0003046FFF7C7FF4836B4687368013B03D526
:104FD000336833B13668F7E7B4F90C506DB1683413
:104FE000F4E704213846FFF79FFF30600028F1D135
:104FF0000C233B6004462046F8BD4FF6FF73E38167
:105000000123A38165662560A560656025616561F2
:10501000A5610822294604F15C00FDF797F9656354
:10502000A563A564E564E6E7FC7600082DE9F04198
:10503000884600F14804002614B93046BDE8F081E6
:10504000A5686768013F01D52468F5E7AB89012BA6
:1050500006D9B5F90E30013302D02846C0470643C1
:105060006835EFE72DE9F8438046894600F14804AA
:10507000002614B93046BDE8F883A5686768013F8B
:1050800001D52468F5E7AB89012B07D9B5F90E30B6
:10509000013303D029464046C84706436835EEE74A
:1050A000F0B506694B11B34200F114052BDA11F08B
:1050B0001F0105EB860605EB830208D12946B242A3
:1050C0000B4610D252F8043B41F8043BF7E755F881
:1050D0002340C1F1200E0432CC402B46B24208D30B
:1050E0001C6004B104335B1B9B10036103B9436173
:1050F000F0BD176807FA0EF73C4343F8044B52F82B
:10510000044BCC40EAE72B46EDE7A0F13003092B36
:1051100002D82038C0B27047A0F16103052B01D836
:105120004738F7E7A0F14103052B01D82738F1E70D
:10513000002070472DE9F04F8BB08A4602901698F8
:105140000693904600F0DAFA036803931846FBF7DB
:105150005FF8039B019003444FF0000B13F8013CF0
:105160000793DAF8003002331F4613F8010B30289A
:105170006CD0FFF7CAFF044600286AD1019A039950
:10518000384602F005F8002866D1019BF85CFE184D
:10519000FFF7BBFF002862D03346187830281F463F
:1051A00003F10103F9D0FFF7B0FFB0FA80F56D0904
:1051B00034464FF0010B3A46164601323078FFF77D
:1051C000A4FF0028F8D1019A0399304601F0E0FFCE
:1051D00050B954B9019BF418224616460132307872
:1051E000FFF793FF0028F8D10CB1A41BA40033787B
:1051F000502B01D0702B40D173782B2B35D02D2B19
:105200002FD0711C4FF000090878FFF77EFF431E76
:10521000DBB2182B31D8A0F1100211F8010FFFF703
:1052200074FF431EDBB2182B22D9B9F1000F00D056
:1052300052421444CAF800100DB3BBF1000F14BF62
:105240000027062738460BB0BDE8F08F0BF1010BA5
:105250008AE700252C46AEE73E460125C7E704460F
:10526000FBE74FF00109B11CCEE74FF00009FAE768
:105270000A2303FB0202103ACFE73146DAE7F31BB9
:10528000013B2946072B49DC029800F0E2FA019B1A
:1052900000F114094FF0000BC3F101030546CDF8EE
:1052A0001090DA460893B7423BD3049840F804AB19
:1052B000A0EB0900801028614701504600F08DFBEB
:1052C000D8F800603F1AB74264DDBF1B3946284654
:1052D00000F08BFE824678B17B1E591103F01F024D
:1052E0004FF0010A59F821100AFA02F20A4203D0DB
:1052F000534546DC4FF0020A39462846FFF7D0FEF8
:105300003C44D8F808309C4252DD2946029800F00F
:10531000D4FA149A00231360A32793E701315B109A
:10532000B0E7731E0593079A16F8013C934218D014
:10533000BBF1200F07D1049BC3F800A004334FF04A
:10534000000A0493D34616F8010CFFF7DEFE00F0C6
:105350000F0000FA0BF04AEA000A0BF1040B059B60
:105360000DE0059B089A13449F42E1D81846019A24
:105370000399099301F00CFF099B0028D8D11E4620
:1053800091E7B91E284600F030FE0028B2D04FF059
:10539000030AB1E709DAF71B29463A46029800F0FA
:1053A0004FFCE41B054600F114094FF0000AA8E782
:1053B000D8F8040084426ADA041BA6422EDCD8F82E
:1053C0000C30022B22D0032B24D0012B15D1A64266
:1053D00013D1012E0BDC069AD8F804301360012398
:1053E0002B61C9F80030149B62271D602AE7711EEB
:1053F000284600F0FAFD0028EDD12946029800F079
:105400005CFA149A0023136050271BE7159B002BAE
:10541000E1D0F2E7159B002BDDD1EEE7671EBAF174
:10542000000F31D127B13946284600F0DEFD824613
:105430007A11012307F01F0703FA07F759F8223002
:1054400021461F42284618BF4AF0020A361BFFF7C2
:1054500027FED8F804400227BAF1000F45D0D8F84B
:105460000C30022B15D0032B17D0012B09D11AF0C9
:10547000020F06D0D9F800304AEA030A1AF0010FE9
:105480000ED147F0100730E04FF0010AD0E70127B6
:10549000E2E7159BC3F101031593159B002BF0D098
:1054A000D5F8109005F114034FEA890A03EB0A01BD
:1054B00000201A68B2F1FF3F1CD001321A60022F9F
:1054C00005F1140338D1D8F80020013A96420AD1E8
:1054D0007111012206F01F0653F8213002FA06F678
:1054E0001E4218BF174647F02007149B1D60069BFD
:1054F0001C60A7E643F8040B9942DAD8AB689945DB
:1055000012DB69680298013100F0A3F92A690232BE
:1055100005F10C01834692000C3000F08FF929460A
:10552000029800F0CAF95D462B695A1C05EB83030B
:105530002A6101225A61C2E72A6991450BDA0121E9
:105540002846FFF7ADFDD8F8083001349C423FF7FC
:10555000DCAE0127C7E716F01F06FAD09A44C6F161
:1055600020065AF8040C00F038FAB042E7DBF0E706
:10557000C2F10802920070B5C2F1200643680468C7
:1055800003FA06F52C43D340046040F8043F8842F8
:10559000F4D370BD30B5036811F8014B013314B971
:1055A0000360012030BD1A78A2F14105192D98BF82
:1055B0002032A242F0D0002030BD2DE9F04F0B6820
:1055C00001685F1102EB870713F01F0387B018BF54
:1055D000043700253E1F82469046029347F8045C3C
:1055E000B14634460195AB464A784B1C039342B30F
:1055F000104605910492FFF788FD002843D1049AD4
:105600000599202A18D8019B9B4513DD4C4506D2ED
:10561000072D04DC2A4649462046FFF7A9FF4445EA
:1056200044D90023A4F1040944F8043CCDF804B0A3
:105630004C461D460399D7E7292A4AD10231CAF8B8
:105640000010BBF1000F44D04C4506D2072D04DCFE
:105650002A4649462046FFF78BFF444528D9434652
:1056600054F8042B43F8042BA642F9D2002243F845
:10567000042B9E42FBD233681BB9464527D1012338
:105680003360052026E00135082D0BF1010B06DD06
:105690004445CFD9002344F8043C0125043C22684A
:1056A00000F00F0040EA02102060C3E70825C1E7C0
:1056B000029B002BDFD04FF0FF32C3F1200322FA10
:1056C00003F357F8042C1A4047F8042CD3E7043EA0
:1056D000D1E7042007B0BDE8F08FD0F8EC007047A8
:1056E000044B054A1B681B6A002B08BF1346D3F8FE
:1056F000EC0070470C00002070000020F030704774
:10570000044B1B68186A044B002808BF1846F03089
:10571000704700BF0C0000207000002038B5074C17
:10572000054608461146002222601A46FCF736FD5F
:10573000431C02D1236803B12B6038BD480200200E
:1057400070B50E46B1F90E10002990B014461D46F2
:1057500007DA00232B60B3891A0610D44FF4806354
:105760000EE001AA01F032FF0028F2DB029A02F4F7
:105770007042A2F500535A425A412A60EEE7402394
:105780000020236010B070BD8B8973B59D0706465D
:105790000C4607D504F147032360236101236361AD
:1057A00002B070BD01AB6A46FFF7CAFF009905461B
:1057B000304600F097FC48B9B4F90C309A05EFD4A4
:1057C00023F0030343F00203A381E3E70D4BB3622D
:1057D000A389206043F08003A381009B6361019B48
:1057E00020615BB1B4F90E10304601F001FF28B121
:1057F000A38923F0030343F00103A381A3891D437D
:10580000A581CDE7D54E0008024B0146186800F08F
:1058100069BC00BF0C00002082B001B901A942B1EF
:105820004BB113780B601278101C18BF012002B026
:1058300070471046FBE76FF00100F8E710B5431E14
:105840000A44914200D110BD11F8014B03F8014FF9
:10585000F7E770B5456A04460E463DB91020FFF7DC
:10586000D3FF6062456085600560C560656AEB686E
:1058700083B1636ADB6853F82600B8B9012101FAE5
:1058800006F56A1D9200204600F0D0FB60B146602C
:1058900085600EE021220421204600F0C7FB636AE8
:1058A000E860DB68002BE4D1002070BD026843F89B
:1058B000262000230361C36070BD70B5446A0646AC
:1058C0000D463CB91020FFF79FFF70624460846072
:1058D0000460C4603DB1736A6A68DB6853F82210E3
:1058E000296043F8225070BD2DE9F0410D691F4633
:1058F00006460C4601F1140E0023DEF8000081B2CA
:1059000002FB01710F0C000C02FB007089B2013325
:1059100001EB00419D424FEA10474EF8041BECDCBE
:10592000D7B1A3689D4212DB616830460131FFF7B1
:1059300090FF2269023204F10C01804692000C3083
:10594000FFF77CFF21463046FFF7B7FF444604EBE4
:10595000850301355F6125612046BDE8F0812DE9B1
:10596000F8430C4615461F4609220833064693FBAA
:10597000F2F3002101229A4220DB3046FFF769FF53
:10598000089B4361092D4FF00103036119DD04F108
:105990000909C8462C4418F8013B0146303B0A224D
:1059A0003046FFF7A1FFA045F5D1A5F108044C440E
:1059B0002D1B6319BB4207DBBDE8F88352000131A0
:1059C000D9E70A340925F3E714F8013B0146303BD7
:1059D0000A223046FFF788FFEBE7020C1204034669
:1059E000B2B90304102013F07F4F04BF1B0208302C
:1059F00013F0704F04BF1B01043013F0404F04BF7D
:105A00009B000230002B06DB5B0003D501307047A2
:105A10000020E8E720207047036813F007020146E2
:105A20000BD0DA0723D4980749BF5B089B080120F5
:105A30000B605CBF0B600220704798B2A8B91B0CCA
:105A4000102013F0FF0F04BF1B0A08301A0704BF11
:105A50001B0904309A0704BF9B080230DA0702D4FE
:105A60005B0806D001300B6070471046E9E7002064
:105A700070472020704710B50C460121FFF7E9FE62
:105A800001224461026110BD2DE9F74F14460A69F5
:105A900023699A42B8BF0B468946BCBFA1461C4643
:105AA000D9F81070D4F810A0D9F80830D9F804103B
:105AB00007EB0A069E42C8BF0131FFF7CAFE00F19C
:105AC000140505EB86082B460022434516D304F146
:105AD000140209F1140102EB8A0301EB8707019319
